:100000000C9463000C948B000C948B000C94F00304
:100010000C94F0030C94F0030C948B000C948B0064
:100020000C948B000C948B000C948B000C948B0024
:100030000C948B000C948B000C948B000C948B0014
:100040000C94A6030C948B000C9474030C944E0334
:100050000C948B000C948B000C948B000C948B00F4
:100060000C948B000C948B000000000024002700EF
:100070002A0000000008000201000003040700003D
:1000800000000000000000000000250028002B00F8
:1000900000000000230026002900040404040404D6
:1000A0000404020202020202030303030303010227
:1000B00004081020408001020408102001020408F6
:1000C00010206A04730611241FBECFEFD8E0DEBFF4
:1000D000CDBF11E0A0E0B1E0EAE7FDE002C005908D
:1000E0000D92A634B107D9F722E0A6E4B1E001C031
:1000F0001D92AF34B207E1F710E0C2E6D0E004C0D1
:100100002197FE010E94A506C136D107C9F70E94BA
:1001100015050C94B0060C940000CF92DF92EF927C
:10012000FF920F931F93CF93DF936C017A018B01A2
:10013000C0E0D0E0CE15DF0589F0D8016D918D01CA
:10014000D601ED91FC910190F081E02DC601099559
:10015000892B11F47E0102C02196ECCFC701DF91FB
:10016000CF911F910F91FF90EF90DF90CF90089566
:10017000FC01538D448D252F30E0842F90E0821BAD
:10018000930B541710F0CF96089501970895FC0132
:10019000918D828D981761F0828DDF01A80FB11DBE
:1001A0005D968C91928D9F5F9F73928F90E00895E2
:1001B0008FEF9FEF0895FC01918D828D981731F09C
:1001C000828DE80FF11D858D90E008958FEF9FEFF0
:1001D0000895FC01918D228D892F90E0805C9F4FC6
:1001E000821B91098F739927089583E991E00E94FA
:1001F000E90021E0892B09F420E0822F0895FC0119
:10020000848DDF01A80FB11DA35ABF4F2C91848D9F
:1002100090E001968F739927848FA689B7892C93D4
:10022000A089B1898C9180648C93938D848D98136F
:1002300006C00288F389E02D80818F7D8083089538
:10024000EF92FF920F931F93CF93DF93EC0181E026
:10025000888F9B8D8C8D981305C0E889F9898081E2
:1002600085FD24C0F62E0B8D10E00F5F1F4F0F731E
:100270001127E02E8C8DE8120CC00FB607FCFACFC8
:10028000E889F989808185FFF5CFCE010E94FF00C2
:10029000F1CF8B8DFE01E80FF11DE35AFF4FF08285
:1002A0000B8FEA89FB898081806207C0EE89FF8914
:1002B0006083E889F98980818064808381E090E0AF
:1002C000DF91CF911F910F91FF90EF900895CF9301
:1002D000DF93EC01888D8823C9F0EA89FB8980814E
:1002E00085FD05C0A889B9898C9186FD0FC00FB620
:1002F00007FCF5CF808185FFF2CFA889B9898C9161
:1003000085FFEDCFCE010E94FF00E7CFDF91CF91B7
:10031000089580E090E0892B29F00E94F50081117A
:100320000C940000089590E0FC01EE58FF4F3491CA
:10033000FC01E255FF4F2491FC01E656FF4FE4918A
:10034000EE2309F43BC0332339F1333091F038F414
:100350003130A9F0323001F584B58F7D12C03730CD
:1003600091F03830A1F03430B9F4809180008F7D65
:1003700003C0809180008F77809380000DC084B58A
:100380008F7784BD09C08091B0008F7703C08091C2
:10039000B0008F7D8093B000F0E0EE0FFF1FEA57B2
:1003A000FF4FA591B4918FB7F894EC91611103C000
:1003B00020952E2301C02E2B2C938FBF0895CF9311
:1003C000DF9390E0FC01E255FF4F2491FC01E656DB
:1003D000FF4F8491882361F190E0880F991FFC0101
:1003E000E859FF4FC591D491FC01EA57FF4FA59101
:1003F000B491611109C09FB7F89488812095822338
:100400008883EC912E230BC0623061F49FB7F8947F
:100410003881822F809583238883EC912E2B2C9317
:100420009FBF06C08FB7F894E8812E2B28838FBF1B
:10043000DF91CF9108953FB7F89480918B0190910F
:100440008C01A0918D01B0918E0126B5A89B05C0AD
:100450002F3F19F00196A11DB11D3FBFBA2FA92F43
:10046000982F8827820F911DA11DB11DBC01CD01C0
:1004700042E0660F771F881F991F4A95D1F70895AC
:100480008F929F92AF92BF92CF92DF92EF92FF92A4
:100490000E941B024B015C018AEFC82ED12CE12C7B
:1004A000F12C0E941B02DC01CB0188199909AA09D1
:1004B000BB09883E9340A105B10558F021E0C21A5E
:1004C000D108E108F10888EE880E83E0981EA11C8F
:1004D000B11CC114D104E104F10419F7FF90EF90AD
:1004E000DF90CF90BF90AF909F908F900895209114
:1004F0009101309192012817390771F490918F0181
:1005000080919001981741F0E0918F01F0E0EA5B53
:10051000FE4F808190E008958FEF9FEF089508953A
:100520001F93CF93DF93DC015C962D913C915D97F7
:100530002115310539F481E090E013969C938E9358
:1005400012973DC05196ED91FC91529750969C9117
:100550005097892F80951FB75E964C915E9741FB0F
:10056000772770F941FD6095F8944081772311F069
:10057000492B01C048234083E9012197F1F748E066
:10058000508160FF02C0592B01C058235083E901FC
:100590002197F1F76695415099F7772321F09081E3
:1005A0008923808303C08081982B90831FBF5C9632
:1005B0008D919C915D970197F1F721E030E0C901A1
:1005C000DF91CF911F910895209191013091920177
:1005D0002817390771F48091900120918F0190E0E4
:1005E000805C9F4F821B910960E470E00E947D0651
:1005F000089580E090E0089520919101309192015A
:1006000028173907B9F490918F01809190019817BC
:1006100089F0E0918F01F0E0EA5BFE4F808120914C
:100620008F0130E02F5F3F4F2F73332720938F01CF
:1006300090E008958FEF9FEF0895E0919101F09180
:100640009201E817F90769F4A389B4899C91858917
:10065000809589238C93109292011092910181E0F0
:10066000089580E00895089580E090E008950E9444
:10067000AB066115710579F0FB0101900020E9F7E7
:100680003197AF01461B570BDC01ED91FC910280C5
:10069000F381E02D099480E090E008951F920F927D
:1006A0000FB60F9211242F933F934F935F936F9345
:1006B0007F938F939F93AF93BF93EF93FF9383E9C0
:1006C00091E00E94FF00FF91EF91BF91AF919F9148
:1006D0008F917F916F915F914F913F912F910F90EB
:1006E0000FBE0F901F9018951F920F920FB60F928A
:1006F00011242F938F939F93EF93FF93E091A30186
:10070000F091A4018081E091A901F091AA0182FDFC
:1007100012C090818091AC018F5F8F732091AD01E9
:10072000821751F0E091AC01F0E0ED56FE4F958F4D
:100730008093AC0101C08081FF91EF919F918F91D7
:100740002F910F900FBE0F901F9018951F920F9230
:100750000FB60F9211242F933F938F939F93AF93D4
:10076000BF938091870190918801A0918901B091F8
:100770008A013091860123E0230F2D3720F4019662
:10078000A11DB11D05C026E8230F0296A11DB11DB4
:10079000209386018093870190938801A09389011B
:1007A000B0938A0180918B0190918C01A0918D0171
:1007B000B0918E010196A11DB11D80938B01909384
:1007C0008C01A0938D01B0938E01BF91AF919F9149
:1007D0008F913F912F910F900FBE0F901F90189502
:1007E0001F920F920FB60F9211242F933F934F93A6
:1007F0005F936F937F938F939F93AF93BF93EF9389
:10080000FF93E0919101F0919201309709F451C06A
:10081000968DA685B785858591FF04C09C91892317
:1008200029F447C09C91892309F043C0A389B48966
:100830009C918589809589238C93868997890197D6
:10084000F1F7608D718DA685B785558538E020E07C
:10085000CB010197F1F7822F90E095958795282F8E
:100860004C91452309F02068315091F7868D81FD28
:1008700020958091900190E001968F739927309197
:100880008F01381749F0A0919001B0E0AA5BBE4FEC
:100890002C938093900103C0868D8160868F828D1A
:1008A000938D0197F1F7A389B4899C918589892B50
:1008B0008C93FF91EF91BF91AF919F918F917F9119
:1008C0006F915F914F913F912F910F900FBE0F90BD
:1008D0001F901895109296011092950188EE93E062
:1008E000A0E0B0E08093970190939801A0939901C4
:1008F000B0939A0124E031E0309394012093930166
:1009000025EC30E03093A00120939F0124EC30E0EF
:100910003093A2012093A10120EC30E03093A40198
:100920002093A30121EC30E03093A6012093A50190
:1009300022EC30E03093A8012093A70126EC30E0B0
:100940003093AA012093A9011092AC011092AD013D
:100950001092AE011092AF01109233021092320247
:100960008093340290933502A0933602B0933702FD
:1009700086E191E090933102809330021092470219
:1009800010924602109249021092480210924B02B5
:1009900010924A0210924D0210924C0260914E0247
:1009A0006E7F6D7F60934E026695617081E068276F
:1009B0008BE00E94930161E08BE00E94DF01E9EB94
:1009C000F0E0E491E0934002E5EAF0E0E491F0E049
:1009D000EE0FFF1FEA57FF4F8591949190934202CB
:1009E0008093410260E08AE00E94DF0180914E0224
:1009F00081FD04C061E08AE00E9493018AE0809357
:100A00003C02E8EBF0E0E491E0933D02E4EAF0E040
:100A1000E491F0E0EE0FFF1FE057FF4F85919491B6
:100A200090933F0280933E020895789484B582604B
:100A300084BD84B5816084BD85B5826085BD85B582
:100A4000816085BD80916E00816080936E00109200
:100A5000810080918100826080938100809181007B
:100A6000816080938100809180008160809380000C
:100A70008091B10084608093B1008091B00081606A
:100A80008093B00080917A00846080937A00809196
:100A90007A00826080937A0080917A0081608093EE
:100AA0007A0080917A00806880937A001092C10069
:100AB00061E08DE00E94DF01E091A301F091A401CB
:100AC00082E08083E091A301F091A4011082E09183
:100AD0009F01F091A0011082E091A101F091A2018B
:100AE00080E180831092AB01E091A701F091A80111
:100AF00086E08083E091A501F091A601808180616C
:100B00008083E091A501F091A601808188608083B7
:100B1000E091A501F091A601808180688083E09139
:100B2000A501F091A60180818F7D808364E271E050
:100B300083E991E00E94390364E371E083E991E085
:100B40000E94390310924B0210924A0210924902FD
:100B50001092480210924702109246028EE393E0F0
:100B600090934D0280934C0290913C02963108F094
:100B700057C02DE831E030934702209346022CE322
:100B800033E0309349022093480224E632E0309368
:100B90004B0220934A0220916800983050F031E0D7
:100BA0009E3008F430E081E001C0880F3A95EAF702
:100BB00001C084E0822B80936800983038F09E302A
:100BC00040F0963148F020E030E008C02DE630E0FB
:100BD00005C02BE630E002C02CE630E03093440242
:100BE00020934302983030F481E001C0880F9A9539
:100BF000EAF70EC0292F30E09E3018F42850310952
:100C000002C02E50310981E001C0880F2A95EAF711
:100C10008093450280914C0290914D020197F1F72B
:100C200080914A0290914B02892B21F18091910190
:100C30009091920122E080339207E1F0009711F049
:100C40000E941D0380914E028E7F80934E0210926F
:100C5000900110928F0180E392E090939201809333
:100C60009101E0914302F09144029081809145020C
:100C7000892B808367E371E080E392E00E9439036F
:100C800064E371E080E392E00E94390361E08DE06B
:100C90000E9493010E94400260E08DE00E94930157
:100CA0000E94400280E392E00E94E402892B49F016
:100CB00080E392E00E94FC02682F83E991E00E94A9
:100CC000200183E991E00E94E900892B49F083E942
:100CD00091E00E94C700682F80E392E00E9490029A
:100CE0000E948901D3CF86E191E0909331028093F5
:100CF000300280E392E00C941D0397FB072E16F45C
:100D0000009407D077FD09D00E94910607FC05D01A
:100D10003EF4909581959F4F0895709561957F4F12
:100D20000895AA1BBB1B51E107C0AA1FBB1FA61732
:100D3000B70710F0A61BB70B881F991F5A95A9F784
:100D400080959095BC01CD010895EE0FFF1F059091
:100D5000F491E02D099481E090E0F8940C94B006B1
:100D600010E0C2E6D0E004C0FE010E94A506219674
:0A0D7000C336D107C9F7F894FFCF8E
:100D7A000000000020018D00B8006701E900C700EB
:100D8A00DB000000000090028D0034038F02E402B1
:100D9A00FC027702476F6F646E69676874206D6F33
:100DAA006F6E21000D0A0048656C6C6F2C20776FFE
:060DBA00726C643F0000B2
:107E0000112484B714BE81FFF0D085E080938100F7
:107E100082E08093C00088E18093C10086E0809377
:107E2000C20080E18093C4008EE0C9D0259A86E02C
:107E300020E33CEF91E0309385002093840096BBD3
:107E4000B09BFECF1D9AA8958150A9F7CC24DD24C4
:107E500088248394B5E0AB2EA1E19A2EF3E0BF2EE7
:107E6000A2D0813461F49FD0082FAFD0023811F036
:107E7000013811F484E001C083E08DD089C08234E0
:107E800011F484E103C0853419F485E0A6D080C0E4
:107E9000853579F488D0E82EFF2485D0082F10E0AE
:107EA000102F00270E291F29000F111F8ED06801E7
:107EB0006FC0863521F484E090D080E0DECF843638
:107EC00009F040C070D06FD0082F6DD080E0C81688
:107ED00080E7D80618F4F601B7BEE895C0E0D1E017
:107EE00062D089930C17E1F7F0E0CF16F0E7DF06D8
:107EF00018F0F601B7BEE89568D007B600FCFDCFD4
:107F0000A601A0E0B1E02C9130E011968C91119780
:107F100090E0982F8827822B932B1296FA010C0160
:107F200087BEE89511244E5F5F4FF1E0A038BF0790
:107F300051F7F601A7BEE89507B600FCFDCF97BE46
:107F4000E89526C08437B1F42ED02DD0F82E2BD052
:107F50003CD0F601EF2C8F010F5F1F4F84911BD097
:107F6000EA94F801C1F70894C11CD11CFA94CF0C13
:107F7000D11C0EC0853739F428D08EE10CD085E9AC
:107F80000AD08FE07ACF813511F488E018D01DD067
:107F900080E101D065CF982F8091C00085FFFCCF94
:107FA0009093C60008958091C00087FFFCCF809118
:107FB000C00084FD01C0A8958091C6000895E0E648
:107FC000F0E098E1908380830895EDDF803219F02E
:107FD00088E0F5DFFFCF84E1DECF1F93182FE3DFCA
:107FE0001150E9F7F2DF1F91089580E0E8DFEE27F6
:047FF000FF270994CA
:027FFE00040479
:0400000300007E007B
:00000001FF
